S00D000074696D65722E73726563F6
S31508000000000400200D030008EB020008F7020008B0
S3150800001000000000000000000000000000000000D2
S31508000020000000000000000000000000290300088E
S3150800003000000000000000002B0300082D03000844
S315080000402F030008310300083303000835030008AE
S3150800005037030008390300083B0300083D0300087E
S315080000603F0300084103000843030008450300084E
S3150800007047030008490300084B0300084D0300081E
S315080000804F0300085103000800000000530300084E
S315080000905503000857030008590300085B030008C6
S315080000A05D0300085F030008610300086303000896
S315080000B06503000800000000670300080000000050
S315080000C080B54B4800680121014349480160494809
S315080000D00068494901404748016045480068474962
S315080000E0014043480160424800684549014040488C
S315080000F0016040480068434901403E480160424863
S3150800010000680F2188434049086040480068404914
S3150800011001403E4801603F480068012188433D4947
S31508000120086000203C49086000F001F801BDC0B530
S3150800013000200190002000902D4800688021490287
S3150800014001432B4801602A4800688021890208403B
S3150800015000900198401C01900098002804D101984D
S31508000160A021C9008842EED121480068800302D543
S315080001700120009001E0002000900098012834D169
S315080001801120264908601B4800681A490860194862
S31508000190006818490860174800681A490140154858
S315080001A00160144800688821490301431148016029
S315080001B00F4800688021490401430D4801600C4836
S315080001C000688001FBD50B4800680321884309496C
S315080001D0086008480068022101430648016005488E
S315080001E000680C2101400829F9D103BD0000000070
S315080001F000100240041002400CB8FFF8FFFFF6FE9C
S31508000200FFFFFBFFFFFFC0FF2C100240301002402B
S31508000210ACFEFFFF341002400810024000200240E6
S3150800022000B5204800688021890201431D48016005
S315080002309020C00500681C4901439020C005016054
S31508000240FA20400119490860002019490880194810
S31508000250008801210143174801800FE01649096803
S31508000260164A9142FAD3401CFA2189008842F5DBE6
S31508000270134800680121014311480160002005E088
S315080002800D4909680D4A9142FAD3401CFA218900A2
S315080002908842F5DB0A4800680121014308480160E5
S315080002A00020E1E714100240010008002C2C014050
S315080002B0282C0140002C0140242C01403F1F00003F
S315080002C01800004800F00BF8002801D0C046C046C8
S315080002D00020C046C046FFF7A3FF00F002F8012041
S315080002E0704780B500F002F801BDFEE707463846BC
S315080002F000F002F8FBE7FEE780B5C046C046024AB2
S3150800030011001820ABBEFBE7260002000148804713
S3150800031001480047C10000081D030008C046C04642
S31508000320C046C046FFF7CEFFFEE7FEE7FEE7FEE75C
S31508000330FEE7FEE7FEE7FEE7FEE7FEE7FEE7FEE787
S31508000340FEE7FEE7FEE7FEE7FEE7FEE7FEE7FEE777
S31508000350FEE7FEE7FEE7FEE7FEE7FEE7FEE7FEE767
S30D08000360FEE7FEE7FEE7FEE7F3
S7050800031DD2
