S3250800000020040020350B00085F0700081F09000800000000000000000000000000000000A8
S32508000020000000000000000000000000130B000800000000000000001F0B0008610B0008E6
S32508000040630B0008650B0008670B0008690B00086B0B00086D0B00086F0B0008710B0008AA
S32508000060730B0008750B0008770B0008790B00087B0B0008CF0000087D0B00087F0B0008C7
S32508000080810B0008830B000800000000850B0008870B0008890B00088B0B00088D0B00081C
S325080000A08F0B0008910B0008930B0008950B0008970B000800000000990B00080000000048
S325080000C00121C006C00E8140B4480160704700B50D4800880D4901400B4801800C480068CE
S325080000E00100491C0A4A11600A4988420ADB0A480068401C084908600020054908600120FF
S32508000100A749086000BD0000102C0140FEFF000008000020E90300001800002038B562B6F1
S325080001200D20FFF7CDFF95480068802189020143924801609B4800688021090101439948B7
S3250800014001609020C0050068974901439020C00501609020C0050068944901409020C005E9
S325080001600160934800688021890101439048016090480068F02188438E4908608D4800688D
S32508000180202101438B480160FA2040018A4908608A48008801210143884801808848008899
S325080001A00121014386480180FA20400000F0E6F900F054FA00F0D4FA824800F0E7FA8248F2
S325080001C000F0E4FA814800F0E1FA814800F0DEFA804800F0DBFA804800F0D8FA7F4800F050
S325080001E0D5FA7F4800F0D2FA764800F0D1FA00F0F3FA0A221521734800F0F9FA00F009FB55
S32508000200704800F0C3FA2922042100F060FA0021212000F035FA734800F0B2F800F006F9EC
S3250800022000F058F900F02CF900F07EF9002400206D49086000257EE001246C48006806289F
S3250800024020DB6B480068802149050143684801606848006804210143664801606648006890
S325080002600221014364480160644800688021490001436248016060480068042101435E4890
S32508000280016030BF46480068012854D15C48006840103C2148435B49086000205849086043
S325080002A000203F4908600021574800F0FAF90021C943002000F0E4F90021C943534800F0AB
S325080002C0F0F90021C943032000F0DAF90021C9434FA000F0E6F90021C943022000F0D0F921
S325080002E00021C9434BA000F0DCF9292204214548006800F0ECF90021C94347A000F0D1F90B
S325080003000021C943012000F0BBF90021C94343A000F0C7F90022D24304213348006800F0EE
S32508000320D6F90021C943202000F0AAF90021C943012000F0A5F9642000F020F9384800886F
S32508000340400600D478E7012C00D076E700240020264908602A480068401C294908606D1C08
S325080003602800304900F080FA002900D065E71E480068401C1C4908605FE70000141002407C
S3250800038000B5002107E0284A1268002AFBD10122254B1A60491C8842F5DA00BD00E100E027
S325080003A0040000201810024054050800FFCFFFFF0C000048240000482C2C0140002C0140AE
S325080003C00C2C01400034000804340008083400080C3400081034000814340008183400089E
S325080003E01C3400088813000010000020180000201C10024010ED00E00070004004700040E5
S325080004000C00002014000020500B0008580B0008544F00004F000000204D00002F4D7C0049
S3250800042010000048750B00000000002080B50021402000F0ABF80121062000F0A7F8012174
S325080004400A2000F0A3F801210A2000F09FF801210A2000F09BF801210A2000F097F801214A
S325080004600A2000F093F801211F2000F08FF80121112000F08BF80021802000F087F801BD3D
S3250800048080B50021482000F081F80121072000F07DF80121092000F079F80121092000F092
S325080004A075F80121092000F071F80121092000F06DF80121092000F069F80121112000F09E
S325080004C065F80121002000F061F80021802000F05DF801BD80B50021502000F057F801213B
S325080004E01F2000F053F80121102000F04FF80121102000F04BF80121102000F047F80121C3
S32508000500102000F043F80121102000F03FF80121102000F03BF80121002000F037F8002102
S32508000520802000F033F801BD80B50021582000F02DF80121112000F029F80121112000F0AA
S3250800054025F80121132000F021F80121152000F01DF80121192000F019F80121112000F017
S3250800056015F80121112000F011F80121002000F00DF80021802000F009F801BD00B5002197
S3250800058001E0521C491C8142FBDB00BD38B505000C00FA208000FFF7F1FF002C07D12E484B
S325080005A000688021090301432B48016005E02A4800680821014328480160FA208000FFF773
S325080005C0DDFF254800681021014323480160FA208000FFF7D3FF072013E01F4909680422A0
S325080005E00A431D490A601C49096820220A431A490A6019490968802292030A4316490A607E
S32508000600401E00280ED42A0002411100C907C90F0029E2D1104909688022D2020A430E497E
S325080006200A60E0E70C480068022101430A4801600948006880218902014307480160FA20B2
S325080006408000FFF79BFF044800688021490301430148016031BD00001800004880B5002149
S325080006603820FFF793FF00210120FFF78FFF00210620FFF78BFF00210C20FFF787FF01BD78
S3250800068010B5040008000021C943884203D000218030FFF77BFF0121E4B22000FFF776FF2D
S325080006A010BD38B5040008000021C943884203D000218030FFF76AFF002504E00121605D84
S325080006C0FFF764FF6D1C605D0028F7D131BD38B504000D0010000021C943884203D0002196
S325080006E08030FFF753FFEDB2012D2CD036D3032D0DD01AD3042D31D101210D002000FA218B
S32508000700890000F0B4F830302900FFF73FFF01210D002000642100F0AAF80A2100F0A7F8C9
S32508000720080030302900FFF731FF01210D0020000A2100F09CF80A2100F099F808003030E2
S325080007402900FFF723FF01210D0020000A2100F08EF8080030302900FFF718FF31BDFEE7E9
S3250800076000B52F480068C007FBD42E48006800060BD52D4800682D4901432B4801602A48A0
S3250800078000682B4901432848016000BD0068704700B52449096802220A4322490A60254937
S325080007A0086020480068402101431E4801601C480068C007FBD41A480068800605D518489B
S325080007C00068202101431648016016480068022188431449086000BD80B51748FFF7D8FFC8
S325080007E010480068012101430E48016001BD00B5C9B20902D2B28918018005E008480068D2
S325080008002021014306480160054800688006F5D500BD0448006801218843024908607047C9
S325080008200C200240102002400420024023016745AB89EFCD1420024000340008F446002890
S3250800084004D4494200F013F8404260474042002905D45FD000F00BF840424942604749421E
S3250800086000F005F84942604703460B43E6D40022030A8B420BD203098B4219D243088B4245
S325080008802ED2411A00D20146524110467047FF2209023FD012068B4205D3121209028B4242
S325080008A001D31212090203098B4219D300E0090AC3098B4201D3CB01C01A524183098B4270
S325080008C001D38B01C01A524143098B4201D34B01C01A524103098B4201D30B01C01A524171
S325080008E0C3088B4201D3CB00C01A524183088B4201D38B00C01A524143088B4201D34B00EB
S32508000900C01A5241884200D3401A5241CFD201461046704708B500F001F808BD7047FEE7D6
S3250800092080B54B4800680121014349480160494800684949014047480160454800684749E0
S3250800094001404348016042480068454901404048016040480068434901403E480160424884
S3250800096000680F2188434049086040480068404901403E4801603F480068012188433D4912
S32508000980086000203C49086000F001F801BDC0B500200190002000902D480068802149028E
S325080009A001432B4801602A48006880218902084000900198401C01900098002804D101987F
S325080009C0A021C9008842EED121480068800302D50120009001E0002000900098012834D1C3
S325080009E01120264908601B4800681A4908601948006818490860174800681A4901401548F1
S32508000A00016014480068882149030143114801600F4800688021490401430D4801600C48B5
S32508000A2000688001FBD50B4800680321884309490860084800680221014306480160054870
S32508000A4000680C2101400829F9D103BD0000000000100240041002400CB8FFF8FFFFF6FEA2
S32508000A60FFFFFBFFFFFFC0FF2C10024030100240ACFEFFFF341002400810024000200240C9
S32508000A8030B401210268001D002A0FD00368C318446808300C4202D04D466D1E64191D6848
S32508000AA025601B1D241D121FECD0F8E730BC704710B5074979441831064C7C44163404E060
S32508000AC0081D0A68891888470100A142F8D110BD0800000018000000A9FFFFFF1C000000A5
S32508000AE0BC000000000000200000000000F00BF8002801D0FFF7DCFF0020C046C046FFF72D
S32508000B000DFB00F002F80120704780B500F002F801BDFEE70746384600F002F8FBE7FEE7BF
S32508000B2080B5C046C046024A11001820ABBEFBE7260002000148804701480047210900088C
S32508000B40450B0008C046C046C046C046FFF7CEFF20504143584F000020207C2000000000DD
S32508000B60FEE7FEE7FEE7FEE7FEE7FEE7FEE7FEE7FEE7FEE7FEE7FEE7FEE7FEE7FEE7FEE717
S32508000B80FEE7FEE7FEE7FEE7FEE7FEE7FEE7FEE7FEE7FEE7FEE7FEE7FEE7000001000000A5
S32508000BA0010000000000000000000000000000000000000000000000FFFFFFFFFFFFFFFF2E
S32508000BC0FFFFFFFFFFFFFFFFFFFFFFFFFFFFFFFFFFFFFFFFFFFFFFFFFFFFFFFFFFFFFFFF27
S32508000BE0FFFFFFFFFFFFFFFFFFFFFFFFFFFFFFFFFFFFFFFFFFFFFFFFFFFFFFFFFFFFFFFF07
S32508000C000F4800688021490401430D4801600C4800688001FBD50B48006803218843094916
S32508000C200860084800680221014306480160054800680C2101400829F9D103BD0000000092
S32508000C4000100240041002400CB8FFF8FFFFF6FEFFFFFBFFFFFFC0FF2C100240301002407C
S32508000C60ACFEFFFF34100240081002400020024030B401210268001D002A0FD00368C318A0
S32508000C80446808300C4202D04D466D1E64191D6825601B1D241D121FECD0F8E730BC7047B5
S32508000CA010B5074979441831064C7C44163404E0081D0A68891888470100A142F8D110BD4A
S32508000CC00800000018000000A9FFFFFF18000000B8000000000000200000000000F00BF85D
S32508000CE0002801D0FFF7DCFF0020C046C046FFF70DFA00F002F80120704780B500F002F812
S32508000D0001BDFEE70746384600F002F8FBE7FEE780B5C046C046024A11001820ABBEFBE785
S32508000D20260002000148804701480047110B0008350D0008C046C046C046C046FFF7CEFF94
S32508000D4020504143584F000020207C2000000000FEE7FEE7FEE7FEE7FEE7FEE7FEE7FEE7E6
S32508000D60FEE7FEE7FEE7FEE7FEE7FEE7FEE7FEE7FEE7FEE7FEE7FEE7FEE7FEE7FEE7FEE715
S32508000D80FEE7FEE7FEE7000000000000000000000100000000000000000000000000000095
S32508000DA0FFFFFFFFFFFFFFFFFFFFFFFFFFFFFFFFFFFFFFFFFFFFFFFFFFFFFFFFFFFFFFFF45
S32508000DC0FFFFFFFFFFFFFFFFFFFFFFFFFFFFFFFFFFFFFFFFFFFFFFFFFFFFFFFFFFFFFFFF25
S32508000DE0FFFFFFFFFFFFFFFFFFFFFFFFFFFFFFFFFFFFFFFFFFFFFFFFFFFFFFFFFFFFFFFF05
S32508000E00FFFFFFFFFFFFFFFFFFFFFFFFFFFFFFFFFFFFFFFFFFFFFFFFFFFFFFFFFFFFFFFFE4
S325080034000A15FFFFFFFFFFFFFFFFFFFFFFFFFFFFFFFFFFFFFFFFFFFFFFFFFFFFFFFFFFFF9D
S32508003420FFFFFFFFFFFFFFFFFFFFFFFFFFFFFFFFFFFFFFFFFFFFFFFFFFFFFFFFFFFFFFFF9E
S32508003440FFFFFFFFFFFFFFFFFFFFFFFFFFFFFFFFFFFFFFFFFFFFFFFFFFFFFFFFFFFFFFFF7E
S32508003460FFFFFFFFFFFFFFFFFFFFFFFFFFFFFFFFFFFFFFFFFFFFFFFFFFFFFFFFFFFFFFFF5E
S32508003480FFFFFFFFFFFFFFFFFFFFFFFFFFFFFFFFFFFFFFFFFFFFFFFFFFFFFFFFFFFFFFFF3E
S3111FFFF800AA55FF00FF00FF00FF00FF00DE
